S01100006770735F77617463682E7372656353
S11300000C94F6000C9413010C94AF070C94130198
S11300100C9413010C9413010C9413010C94AF0D64
S11300200C9413010C9413010C9413010C94040FFD
S11300300C9413010C9413010C9413010C941301EC
S11300400C9413010C9413010C9413010C941301DC
S11300500C941301036EDB363D9A9999993DABAA32
S1130060AA2A3E000000803F072C7AA5BA6CC590EE
S1130070DA3B9365FC8BBC53F810FD3C5692834DE0
S1130080BD879D3AB63DCBC9BF5BBE73DA0FC93F8E
S113009005A84CCDB2D44EB93836A9020C50B9914A
S11300A08688083CA6AAAA2ABE000000803F6E618A
S11300B06E00696E660000407A10F35A00A0724E1A
S11300C018090010A5D4E80000E87648170000E4F9
S11300D00B54020000CA9A3B000000E1F505000041
S11300E080969800000040420F000000A0860100A6
S11300F00000102700000000E80300000000640076
S1130100000000000A0000000000010000000000E0
S11301102C76D888DC674F0823DFC1DFAE59E1B104
S1130120B796E5E3E453C63AE651997696E8E6C213
S11301308426EB898C9B62ED407C6FFCEFBC9C9F1A
S113014040F2BAA56FA5F490055A2AF75C936B6C3C
S1130150F9676DC11BFCE0E40D47FEF520E6B50030
S1130160D0ED902E0300943577050080841E08009E
S113017000204E0A000000C80C333333330F986E4E
S113018012831141EF8D2114893BE65516CFFEE60B
S1130190DB18D1844B381BF77C1D901DA4BBE424D1
S11301A0203284725E228100C9F124ECA1E53D274E
S11301B04E414E494E495459494E46CDCCCC3D0A48
S11301C0D7233C17B7D13877CC2B329595E6241F2B
S11301D0B14F0A000020410000C84200401C4620E4
S11301E0BCBE4CCA1B0E5AAEC59D740011241FBE62
S11301F0CFE5D8E0DEBFCDBF15E0A0E6B0E0E4ED8A
S1130200F6E302C005900D92AC31B107D9F725E0B1
S1130210ACE1B5E001C01D92AC35B207E1F70E9434
S113022024080C94681B0C940000CF93C82F8A30C8
S113023019F48DE00E9415015D9BFECFCCB9CF91DE
S113024008955F9BFECF8CB10895672B09F09FC082
S1130250009711F4D89808958130910511F4D99834
S113026008958230910511F4DA9808958330910548
S113027011F4DB9808958430910511F4DC98089505
S11302808530910511F4DD9808958630910511F4B7
S1130290DE9808958730910511F4DF9808958A3027
S11302A0910511F4C09808958B30910511F4C1980B
S11302B008958C30910511F4C29808958D309105FC
S11302C011F4C39808958E30910511F4C4980895DB
S11302D08F30910511F4C59808958031910511F47A
S11302E0C69808958131910511F4C7980895843111
S11302F0910511F4A89808958531910511F4A998F0
S113030008958631910511F4AA98089587319105CD
S113031011F4AB9808958831910511F4AC980895BF
S11303208931910511F4AD9808958A31910511F43C
S1130330AE9808958B31910511F4AF9808958E31DC
S1130340910511F4909808958F31910511F49198C5
S113035008958032910511F492980895813291059F
S113036011F4939808958232910511F494980895A4
S11303708332910511F4959808958432910511F40E
S113038096980895859709F09FC0979808950097C7
S113039011F4D89A08958130910511F4D99A0895E9
S11303A08230910511F4DA9A08958330910511F49D
S11303B0DB9A08958430910511F4DC9A0895853010
S11303C0910511F4DD9A08958630910511F4DE9AB1
S11303D008958730910511F4DF9A08958A309105C4
S11303E011F4C09A08958B30910511F4C19A0895BF
S11303F08C30910511F4C29A08958D30910511F451
S1130400C39A08958E30910511F4C49A08958F30DB
S1130410910511F4C59A08958031910511F4C69A95
S113042008958131910511F4C79A08958431910595
S113043011F4A89A08958531910511F4A99A0895A3
S11304408631910511F4AA9A08958731910511F422
S1130450AB9A08958831910511F4AC9A08958931C5
S1130460910511F4AD9A08958A31910511F4AE9A6B
S113047008958B31910511F4AF9A08958E31910549
S113048011F4909A08958F31910511F4919A089579
S11304908032910511F4929A08958132910511F4F4
S11304A0939A08958232910511F4949A08958332AF
S11304B0910511F4959A08958432910511F4969A50
S11304C00895859709F4979A0895CF93C82F80FFCC
S11304D007C061E070E082E290E00E94250106C05E
S11304E060E070E082E290E00E942501C1FF07C055
S11304F061E070E083E290E00E94250106C060E0C4
S113050070E083E290E00E942501C2FF07C061E031
S113051070E084E290E00E94250106C060E070E093
S113052084E290E00E942501C3FF07C061E070E00F
S113053085E290E00E94250106C060E070E085E25B
S113054090E00E942501CF910895CF93C82F60E0D9
S113055070E08AE190E00E9425018C2F0E946502E0
S113056061E070E08BE190E00E94250189EF90E06A
S11305700197F1F700C0000060E070E08BE190E0CB
S11305800E94250189EF90E00197F1F700C0000077
S1130590CF91089580E00E94A50281E00E94A50207
S11305A00895CF93C62F813059F480E8860F829541
S11305B08F700E94A5028C2F8F700E94A5020CC020
S11305C0823051F480EC860F82958F700E94A502D0
S11305D08C2F8F700E94A502CF91089580E00E9415
S11305E0650287E893E10197F1F700C0000083E01A
S11305F00E94A50281EE94E00197F1F700C000008B
S113060083E00E94A5028DEB9AE00197F1F700C008
S1130610000083E00E94A50282E00E94A50282E01D
S11306200E94A50288E00E94A50280E00E94A50223
S11306308CE00E94A50280E00E94A50286E00E9450
S1130640A5020895CF93C82F61E070E08AE190E09D
S11306500E9425018C2F82958F700E94650261E0B3
S113066070E08BE190E00E94250189EF90E0019712
S1130670F1F700C0000060E070E08BE190E00E94C0
S1130680250189EF90E00197F1F700C000008C2F5D
S11306908F700E94650261E070E08BE190E00E943F
S11306A0250189EF90E00197F1F700C0000060E0B8
S11306B070E08BE190E00E94250189EF90E00197C2
S11306C0F1F700C00000CF910895CF93DF93EC01C0
S11306D08881882331F021960E9422038991811117
S11306E0FBCFDF91CF9108954F925F926F927F92EB
S11306F08F929F92AF92BF92CF92DF92EF92FF922E
S11307000F931F93CF93DF93CDB7DEB760970FB6E8
S1130710F894DEBF0FBECDBF29833A834B835C833D
S11307209B01AC01C801B7010E94BE0F6D837E839B
S11307308F83988729813A814B815C81C601B501F9
S11307400E94BE0F69837A838B839C83A8019701DF
S11307506BA17CA18DA19EA10E94BE0F2B013C0127
S1130760A60195016FA178A589A59AA50E94BE0F3F
S11307704B015C0129813A814B815C81CA01B90139
S11307800E941A126B017C012D813E814F81588594
S1130790CA01B9010E941A129B01AC01C701B6013A
S11307A00E94BF0F0E94811269877A878B879C877A
S11307B0A5019401C501B4010E941A126B017C01C8
S11307C0A3019201C301B2010E941A129B01AC0160
S11307D0C701B6010E94BF0F0E9481126D877E87F8
S11307E08F87988BA301920169817A818B819C8187
S11307F00E941A126B017C01A50194016D817E8116
S11308008F8198850E941A129B01AC01C701B60121
S11308100E94BE0F6B017C012D853E854F85588952
S113082069857A858B859C850E941A129B01AC018F
S1130830C701B6010E9441100E94231020E030E05D
S113084044E353E40E941A122BED3FE049E450E4E0
S11308500E94411060960FB6F894DEBF0FBECDBF64
S1130860DF91CF911F910F91FF90EF90DF90CF9088
S1130870BF90AF909F908F907F906F905F904F90BC
S11308800895CF92DF92EF92FF926B017C0120E0FA
S113089030E040EF51EC0E943A10882354F420E0F9
S11308A030E044E353ECC701B6010E941612181657
S11308B0B4F020E030E040EF51E4C701B6010E94FB
S11308C01612181674F420E030E044E353E4C70130
S11308D0B6010E943A10181634F480E005C081E095
S11308E003C080E001C082E0FF90EF90DF90CF90E2
S11308F008954F925F926F927F92AF92BF92CF9280
S1130900DF92EF92FF920F931F93CF93DF93CDB7B4
S1130910DEB72C970FB6F894DEBF0FBECDBF2B0108
S11309203C0129873A874B875C87E982FA820B83EB
S11309301C83A80197010E94BF0F2BED3FE049E4FF
S113094050E40E941A1220E030E044E353E40E9491
S1130950411020E030E040E05FE30E941A120E9460
S11309603E106D837E838F83988729853A854B85D6
S11309705C85C601B5010E94BE0F2BED3FE049E442
S113098050E40E941A1220E030E044E353E40E9451
S113099041102D813E814F8158850E941A126B01AE
S11309A07C01A301920169817A818B819C810E94DF
S11309B0BE0F2BED3FE049E450E40E941A1220E000
S11309C030E044E353E40E9441102B013C01A701B1
S11309D09601C701B6010E941A126B017C01A301A2
S11309E09201C301B2010E941A129B01AC01C7011A
S11309F0B6010E94BF0F0E94811220E73DE642EC3F
S1130A005AE40E941A120E94AE10CB012C960FB623
S1130A10F894DEBF0FBECDBFDF91CF911F910F9130
S1130A20FF90EF90DF90CF90BF90AF907F906F904A
S1130A305F904F9008954F925F926F927F928F9242
S1130A409F92AF92BF92CF92DF92EF92FF92CF9399
S1130A50DF9300D000D0CDB7DEB70E94D5176B016D
S1130A607C010E94A91069837A838B839C8389818A
S1130A709A8164E670E00E944F16BC01882777FDD6
S1130A808095982F0E94DC102B013C0120E030E07F
S1130A9048EC52E4C701B6010E9441100E94A9101B
S1130AA0882777FD8095982F0E94DC104B015C010C
S1130AB029813A81B901882777FD8095982F0E9472
S1130AC0DC109B01AC01C701B6010E94BE0F9B0163
S1130AD0AC01C301B2010E94BF0F20E030E040E747
S1130AE052E40E9441109B01AC01C501B4010E9473
S1130AF0BF0F0F900F900F900F90DF91CF91FF9049
S1130B00EF90DF90CF90BF90AF909F908F907F90A9
S1130B106F905F904F900895FF920F931F93CF9320
S1130B20DF93EC018B01F42E8CE090E00E94AE1672
S1130B30FE01E00FF11F319720812C3209F067C0CC
S1130B409801225031094EE4F41661F0FE01E20FDF
S1130B50F31F40814C3261F12130310509F45AC050
S1130B60DF0121C0FE01E20FF31F40814C3201F18D
S1130B704035F1F02115310509F44FC0D801129721
S1130B80AC0FBD1F04C02115310509F449C0215023
S1130B9031094E914C3261F04035A9F709C021303A
S1130BA0310509F440C0215031094E914C32B9F756
S1130BB0DC012F5F3F4FFE01E20FF31F50E020E006
S1130BC030E061E00DC04D93319648814E3219F406
S1130BD0513061F1562F2F5F3F4F2C30310549F1D1
S1130BE0EF0140814C3279F7FC01E20FF31F1082D0
S1130BF0FC0101900020E9F79F01281B390B2A50C2
S1130C00310923303105B8F080E090E014C080E071
S1130C1090E011C080E090E00EC080E090E00BC056
S1130C2080E090E008C080E090E005C080E090E0C3
S1130C3002C080E090E0DF91CF911F910F91FF906F
S1130C4008958F929F92AF92BF92CF92DF92EF92CC
S1130C50FF920F931F93CF93DF937C01EB018A01E3
S1130C60FC0101900020E9F73197E81BF90B7A9712
S1130C700CF49AC0FC018081873409F098C081810A
S1130C80803509F097C083C02EE4B21629F083E5BD
S1130C90B81611F04B017FC04EE4C7010E948C05C9
S1130CA06C01009709F489C0B4016E5F7F4FF701AE
S1130CB0E60FF71FA080E5E4AE16C9F0F7E5AF161E
S1130CC0B1F0AA2009F47CC023E0820E911CF70144
S1130CD0E80DF91D03C0AA2009F475C06F5F7F4FAA
S1130CE0A19085E4A81619F027E5A212F4CF45E4F3
S1130CF0C7010E948C057C01009709F467C08881B4
S1130D009981AA81BB81F80180839183A283B383F3
S1130D108C819D81AE81BF8184839583A683B783B3
S1130D20FF92EF92DF92CF9288E391E09F938F93AB
S1130D300E94F918C6010E941B05688379838A837F
S1130D409B83C7010E941B056C837D838E839F83D5
S1130D500F900F900F900F900F900F90F3E5BF122C
S1130D6009C0088119812A813B813058088319837D
S1130D702A833B8327E5A2122CC0DC01CB01B058A7
S1130D808C839D83AE83BF8381E090E024C0F70110
S1130D903196812C912CB4016F5F7F4FB190B110CB
S1130DA073CF80E090E017C080E090E014C080E052
S1130DB090E011C080E090E00EC080E090E00BC0B5
S1130DC080E090E008C080E090E005C080E090E022
S1130DD002C081E090E0DF91CF911F910F91FF90CD
S1130DE0EF90DF90CF90BF90AF909F908F90089539
S1130DF082E08BB988E18AB986E880BD10BC8CE0BA
S1130E0089B908955F9BFECF8CB190E008958EB5AB
S1130E108B608EBD1DBC1CBC87EA91E69BBD8ABD60
S1130E2089B7806189BF7894089580E88BBF85B7BE
S1130E308C6085BF7894089583B7846083BF12BEA5
S1130E4089B7816089BF7894109231050895109212
S1130E5033051092320583E591E00E940D192FE9C4
S1130E6086E891E0215080409040E1F700C0000006
S1130E7083E591E00E940D190E9407070E941C0758
S1130E8018BA10926700109235051092340510922A
S1130E902F0510921F05109222051092380510920A
S1130EA0390510923A0510923B0510923C051092B8
S1130EB03D0510923E0510923F05E3E2F5E01082F5
S1130EC01182128213821092270510922805109223
S1130ED0290510922A051092460510924705109292
S1130EE048051092490510924A0510924B0510923C
S1130EF04C0510924D05F0932C05E0932B058FEFD4
S1130F009FEF90932E0580932D0510923305109238
S1130F10320585E090E0909321058093200581E0DF
S1130F2090E090934F0580934E051092300583E036
S1130F308093660010923705109236051092410591
S1130F4010924005109242051092430510924405F8
S1130F501092450589E491E00E940D1908951F92AD
S1130F600F920FB60F9211242F933F934F935F93D9
S1130F706F937F938F939F93AF93BF93EF93FF935D
S1130F808AE691E00E940D190E94CA0260E081E0A5
S1130F900E94D10280911D0581110AC088E791E069
S1130FA00E9465030E94270781E080931D052DC0E0
S1130FB08130A9F482E080931D0510922F0584E806
S1130FC091E00E9465032FE38DE093E0215080407F
S1130FD09040E1F700C000000E94CA0216C08230AF
S1130FE0A1F40E94CA0260E081E00E94D10280E97B
S1130FF091E00E94650360E082E00E94D1028CE9E6
S113100091E00E94650310921D0580911D051F92B9
S11310108F938CEA91E09F938F930E94F9180F901D
S11310200F900F900F90FF91EF91BF91AF919F910F
S11310308F917F916F915F914F913F912F910F907D
S11310400FBE0F901F901895CF93DF93CDB7DEB7E7
S11310506C970FB6F894DEBF0FBECDBF8FEF81BB88
S113106084BB93E09ABB87BB0E94EE020E941507E3
S11310700E94F8062EE0DE011196FD01822F1192E6
S11310808A95E9F782E08C8385E191E09A878987E4
S1131090AE01415F5F4FFA0111922A95E9F781E0B1
S11310A08A8B81E291E09A8F898FB0935705A09340
S11310B05605509355054093540585EC91E00E94E4
S11310C00D190E94CA0260E081E00E94D10280E909
S11310D091E00E94650360E082E00E94D1028CE905
S11310E091E00E946503FFE32DE083E0F15020408E
S11310F08040E1F700C00000FFCF811102C0D89802
S113110001C0D89A611102C0D9980895D99A089556
S11311100F931F93CF93DF93CDB7DEB761970FB6CD
S1131120F894DEBF0FBECDBF8C0180E292E00E9436
S11311300D191F930F9384E392E09F938F930E9462
S1131140F9180F900F900F900F9002301105B1F520
S113115084E492E00E940D1982E0809366000E946C
S1131160CA0260E081E00E94D10288E492E00E9419
S11311706503809133058F93809132058F9382E5C7
S113118092E09F938F931F9281E18F938E010F5F63
S11311901F4F1F930F930E943A1960E082E00E9450
S11311A0D102C8010E94650360E081E00E947D08CD
S11311B00FB6F894DEBF0FBECDBF91C0013011054C
S11311C0B1F58EE592E00E940D1982E080936600ED
S11311D00E94CA0260E081E00E94D10282E692E0AD
S11311E00E946503809133058F93809132058F931C
S11311F082E592E09F938F931F9281E18F938E01FA
S11312000F5F1F4F1F930F930E943A1960E082E013
S11312100E94D102C8010E94650361E080E00E943F
S11312207D080FB6F894DEBF0FBECDBF58C00115C0
S1131230110521F00330110509F042C08DE692E05A
S11312400E940D190E94CA0260E081E00E94D1024E
S11312508DE792E00E946503809133058F9380911E
S113126032058F9382E592E09F938F931F9281E1E1
S11312708F938E010F5F1F4F1F930F930E943A1994
S113128060E082E00E94D102C8010E9465030FB6AB
S1131290F894DEBF0FBECDBF80911E05811106C03C
S11312A01092660081E080931E0505C081E0809362
S11312B0660010921E0560E080E00E947D080FC069
S11312C00430110561F489E892E09F938F930E94A2
S11312D0F91860E080E00E947D080F900F908EE97D
S11312E092E00E940D1961960FB6F894DEBF0FBE0E
S11312F0CDBFDF91CF911F910F9108952F923F920F
S11313004F925F926F927F928F92AF92BF92CF92E1
S1131310DF92EF92FF920F931F93CF93DF93CDB79A
S1131320DEB7E7970FB6F894DEBF0FBECDBF81EBF3
S113133092E00E940D19E3E2F5E083818F938281AC
S11313408F9381818F9380818F930F2EF7ECCF2E13
S1131350F2E0DF2EF02DDF92CF921F920F2EF1E1FB
S1131360BF2EF02DBF928E010F5F1F4F1F930F935F
S11313700E943A19E7E2F5E083818F9382818F938B
S113138081818F9380818F93DF92CF921F92BF923E
S11313907E0122E1E20EF11CFF92EF920E943A19C3
S11313A0FF92EF921F930F938BEC92E09F938F9396
S11313B00E94F918E8E3F5E083818F9382818F938B
S11313C081818F9380818F93DF92CF921F92BF92FE
S11313D01F930F930E943A190FB6F894DEBF0FBE05
S11313E0CDBFECE3F5E083818F9382818F9381817C
S11313F08F9380818F93DF92CF921F92BF92FF923F
S1131400EF920E943A19FF92EF921F930F938AED85
S113141092E09F938F930E94F91880914F058F93C8
S113142080914E058F9388EE92E09F938F930E9454
S1131430F918E0914E05F0914F05EE0FFF1FEE0FE6
S1131440FF1FEE0FFF1FE350FF4F83818F938281B5
S11314508F9381818F9380818F93DF92CF921F929C
S1131460BF921F930F930E943A19A0914E05B09119
S11314704F05AA0FBB1FAA0FBB1FAA0FBB1FA35068
S1131480BF4FFD01349683818F9382818F93818135
S11314908F9314968C918F93DF92CF921F92BF9269
S11314A0FF92EF920E943A190FB6F894DEBF0FBE76
S11314B0CDBFFF92EF921F930F938BEF92E09F9318
S11314C08F930E94F91880914E0590914F052090BA
S11314D02005309021050F900F900F900F900F90E2
S11314E00F90821593050CF04DC1FC01EE0FFF1F08
S11314F0EE0FFF1FEE0FFF1FE350FF4FA480B580D8
S1131500C680D780E080F180028113810F2EF7E23C
S11315104F2EF5E05F2EF02DF201208131814281C2
S113152053810F2EF3E22F2EF5E03F2EF02DD10143
S11315306D917D918D919C910F2EFDE68F2EF02D56
S11315400E9479043C0190932E0580932D057F928F
S11315508F938DE093E09F938F930E94F918F2018B
S1131560A080B180C280D380D101ED90FD900D9117
S11315701C9120913C0530913D0540913E055091D0
S11315803F05609138057091390580913A05909135
S11315903B050E9479042C015F928F9388E293E0CB
S11315A09F938F930E94F9180FB6F894DEBF0FBE75
S11315B0CDBFF4E16F16710408F068C088E393E0CE
S11315C00E940D19E0914E05F0914F053196F0936C
S11315D04F05E0934E0580912F0581114EC0A090D8
S11315E02705B0902805C0902905D0902A05E090E1
S11315F02305F090240500912505109126052091DE
S11316003C0530913D0540913E0550913F05609168
S113161038057091390580913A0590913B05EE0F9C
S1131620FF1FEE0FFF1FEE0FFF1FE350FF4FDF0101
S1131630149613967C9013977F9212967C9012972F
S11316407F921196AC91AF93A481AF93A381AF9392
S1131650A281AF93A181AF93E081EF930E947403C1
S11316600FB6F894DEBF0FBECDBF0E944104809335
S1131670300590E00E94880804C080E090E00E9459
S1131680880860E080E00E947D0865C039E1631647
S1131690710408F054C082E493E00E940D19E091B3
S11316A04E05F0914F05A0902705B0902805C090F5
S11316B02905D0902A05E0902305F0902405009197
S11316C025051091260520913C0530913D0540915A
S11316D03E0550913F056091380570913905809120
S11316E03A0590913B05EE0FFF1FEE0FFF1FEE0F23
S11316F0FF1FE350FF4FDF01149613967C9013975E
S11317007F9212967C9012977F921196AC91AF9330
S1131710A481AF93A381AF93A281AF93A181AF932F
S1131720E081EF930E9474030FB6F894DEBF0FBEFE
S1131730CDBF0E94410490E00E9488080CC08CE454
S113174093E09F938F930E94F91880E090E00E94A9
S113175088080F900F908091320590913305480EC0
S1131760591E50923305409232055F924F928FE595
S113177093E09F938F930E94F9180F900F900F900E
S11317800F90B1C04090270550902805609029051E
S113179070902A058091230590912405A091250538
S11317A0B09126058CAB9DABAEABBFAB20913C0595
S11317B030913D0540913E0550913F0560913805BB
S11317C07091390580913A0590913B050F2EFDE605
S11317D08F2EF02D63015201ECA8FDA80EA91FA9BC
S11317E00E94790420912D0530912E05281B390B78
S11317F026303105F0F0F101EE0FFF1FEE0FFF1F51
S1131800EE0FFF1FEB50FF4FA480B580C680D7803A
S1131810E080F18002811381A30192016CA97DA96A
S11318208EA99FA90E94790490932E0580932D057B
S11318305AC081E893E00E940D1981E0809322054B
S113184083E0809366000E94CA0260E081E00E9407
S1131850D10286E993E00E946503809133058F935A
S1131860809132058F9383EA93E09F938F931F9225
S113187081E18F938E010D5D1F4F1F930F930E9483
S11318803A1960E082E00E94D102C8010E94650317
S113189061E081E00E947D089FE3ADE0B3E09150F8
S11318A0A040B040E1F700C0000060E080E00E948A
S11318B07D08809133058F93809132058F938DEA53
S11318C093E09F938F930E94F918EFE7FAE126E0E3
S11318D0E150F0402040E1F700C000000FB6F8945A
S11318E0DEBF0FBECDBF81E080932F05E0914E0592
S11318F0F0914F05EE0FFF1FEE0FFF1FEE0FFF1FBE
S1131900E350FF4F83818F9382818F9381818F93E3
S113191080818F930F2EF7ECEF2EF2E0FF2EF02D47
S1131920FF92EF921F920F2EF1E1DF2EF02DDF9246
S11319308E010F5F1F4F1F930F930E943A19A091BE
S11319404E05B0914F05AA0FBB1FAA0FBB1FAA0FCC
S1131950BB1FA350BF4FFD01349683818F938281B7
S11319608F9381818F9314968C918F93FF92EF9232
S11319701F92DF927E0192E1E90EF11CFF92EF9239
S11319800E943A19FF92EF921F930F9380EC93E019
S11319909F938F930E94F9188AED93E00E940D198A
S11319A00FB6F894DEBF0FBECDBFE7960FB6F8941E
S11319B0DEBF0FBECDBFDF91CF911F910F91FF907E
S11319C0EF90DF90CF90BF90AF908F907F906F900B
S11319D05F904F903F902F9008956F927F928F92D7
S11319E09F92AF92BF92CF92DF92EF92FF920F93AA
S11319F01F93CF93DF93CDB7DEB764970FB6F894F8
S1131A00DEBF0FBECDBF8DEE93E00E940D19809115
S1131A101D05813009F08EC08091220581118AC094
S1131A200F2EF8E7AF2EF4E0BF2EF02D0F2EFAE0C4
S1131A307F2EF02D6E018BE0C80ED11C0F2EF7E225
S1131A40EF2EF5E0FF2EF02D8E010F5F1F4F0F2EAE
S1131A50F6E08F2EF4E09F2EF02D662463940E940E
S1131A600207843209F057C0E0913405F09135053E
S1131A70E959FF4F108287E690E00E940D1948E370
S1131A8055E063E275E087E690E00E942106892B29
S1131A9029F489EF93E00E940D1938C0E3E2F5E0E0
S1131AA083818F9382818F9381818F9380818F93A0
S1131AB0BF92AF921F927F92DF92CF920E943A1907
S1131AC0F70183818F9382818F9381818F938081AA
S1131AD08F93BF92AF921F927F921F930F930E9496
S1131AE03A191F930F93DF92CF929F928F920E9485
S1131AF0F9180FB6F894DEBF0FBECDBF80911F0555
S1131B00813011F40E947E0960921F051092350500
S1131B1010923405A4CF2091340530913505F90194
S1131B20E959FF4F80832F5F3F4F30933505209352
S1131B30340595CF64960FB6F894DEBF0FBECDBFC3
S1131B40DF91CF911F910F91FF90EF90DF90CF9095
S1131B50BF90AF909F908F907F906F9008951F9249
S1131B600F920FB60F9211242F933F934F935F93CD
S1131B706F937F938F939F93AF93BF93EF93FF9351
S1131B8080911C058F5F823019F080931C050CC076
S1131B9010921C0580911D05813031F4809122053D
S1131BA0811102C00E94ED0CFF91EF91BF91AF91A2
S1131BB09F918F917F916F915F914F913F912F9161
S1131BC00F900FBE0F901F901895EF92FF920F93F6
S1131BD01F93CF93DF93CDB7DEB7A2970FB6F894D8
S1131BE0DEBF0FBECDBF8EE494E00E940D19E3E288
S1131BF0F5E083818F9382818F9381818F9380819C
S1131C008F9387E694E09F938F931F9211E11F9324
S1131C10CE0101967C01FF928F930E943A19E7E26C
S1131C20F5E083818F9382818F9381818F9380816B
S1131C308F9381E794E09F938F931F921F938E015C
S1131C400E5E1F4F1F930F930E943A190E94CA02FF
S1131C5060E081E00E94D102C7010E94650360E058
S1131C6082E00E94D102C8010E9465030FB6F89475
S1131C70DEBF0FBECDBFA2960FB6F894DEBF0FBE77
S1131C80CDBFDF91CF911F910F91FF90EF900895F9
S1131C908F929F92AF92BF92CF92DF92EF92FF9278
S1131CA01F93CF93DF93CDB7DEB7A2970FB6F89407
S1131CB0DEBF0FBECDBF8BE794E09F938F930E944E
S1131CC0F9180E94CA02809133058F9380913205DE
S1131CD08F938BE994E09F938F931F9211E11F934D
S1131CE0CE0101967C01FF928F930E943A19FF92D4
S1131CF0EF920E94F91860E081E00E94D102C701CE
S1131D000E94650380914005909141052CE3289F32
S1131D10B001299F700D112440913605509137056B
S1131D2020E13EE0429FC001439F900D529F900DE1
S1131D301124680F791F80E090E00E94DA1020914E
S1131D4042053091430540914405509145050E9458
S1131D50BF0F0E94AE106B017C016091320570913F
S1131D60330580E090E00E94DA104B015C01B6017B
S1131D7080E090E00E94DA109B01AC01C501B4013F
S1131D800E9441109F938F937F936F9388EA94E00E
S1131D909F938F931F921F935E0192E1A90EB11C32
S1131DA0BF92AF920E943A19BF92AF920E94F91863
S1131DB0DF92CF92809133058F93809132058F9378
S1131DC087EB94E09F938F930E94F91860E082E080
S1131DD00E94D102C5010E9465030FB6F894DEBFCC
S1131DE00FBECDBFA2960FB6F894DEBF0FBECDBF17
S1131DF0DF91CF911F91FF90EF90DF90CF90BF9034
S1131E00AF909F908F9008951F920F920FB60F92EC
S1131E101124CF92DF92EF92FF920F931F932F938F
S1131E203F934F935F936F937F938F939F93AF935E
S1131E30BF93CF93DF93EF93FF93809131058F5F2F
S1131E4080933105809131058E3209F07EC020E007
S1131E5030E040E450E46091420570914305809184
S1131E604405909145050E94BF0F6B017C0160936E
S1131E70420570934305809344059093450520E003
S1131E8030E040E752E40E94161288235CF100918E
S1131E90400510914105E8012196D0934105C09376
S1131EA0400520E030E040E752E4C701B6010E945B
S1131EB0BE0F60934205709343058093440590934D
S1131EC04505EC9778F08091360590913705019699
S1131ED090933705809336050B53110910934105F0
S1131EE00093400587ED94E00E940D19109231058E
S1131EF080912205811129C080911D05813029F529
S1131F00809166001F928F938EED94E09F938F9340
S1131F100E94F918809166000F900F900F900F9017
S1131F20811103C00E94E50D10C0823019F4109293
S1131F3066000BC0813029F40E94480E109266009E
S1131F4004C0833011F410926600FF91EF91DF9189
S1131F50CF91BF91AF919F918F917F916F915F913D
S1131F604F913F912F911F910F91FF90EF90DF9030
S1131F70CF900F900FBE0F901F9018955058BB270D
S1131F80AA270ED008C2D1D130F0D6D120F031F436
S1131F909F3F11F41EF490C10EF4E095E7FB86C157
S1131FA0E92F1BD280F3BA176207730784079507DA
S1131FB018F071F49EF533C20EF4E0950B2EBA2F8F
S1131FC0A02D0B01B90190010C01CA01A00111243B
S1131FD0FF27591B99F0593F50F4503E68F11A16E7
S1131FE0F040A22F232F342F4427585FF3CF469578
S1131FF037952795A795F0405395C9F77EF41F169A
S1132000BA0B620B730B840BBAF09150A1F0FF0F63
S1132010BB1F661F771F881FC2F70EC0BA0F621F4F
S1132020731F841F48F4879577956795B795F7953F
S11320309E3F08F0B3CF9395880F08F09927EE0FD1
S11320409795879508959F939F77EEE389379E0729
S113205020F4E4E5F0E058D109C0E9D09058A2EAB0
S11320602AED3FE049EC5FE39BDF95D10F9007FC3D
S113207090580895F7D008F481E0089565D1E39568
S11320809BC10CD088C158D140F04FD130F021F41D
S11320905F3F19F00BC15111C3C10EC19ED198F31A
S11320A09923C9F35523B1F3951B550BBB27AA27D5
S11320B062177307840738F09F5F5F4F220F331F47
S11320C0441FAA1FA9F333D00E2E3AF0E0E830D013
S11320D091505040E695001CCAF729D0FE2F27D016
S11320E0660F771F881FBB1F261737074807AB07E4
S11320F0B0E809F0BB0B802DBF01FF2793585F4F59
S11321002AF09E3F510568F0D1C08AC15F3FECF3CD
S1132110983EDCF3869577956795B795F7959F5F1D
S1132120C9F7880F911D9695879597F90895E1E071
S1132130660F771F881FBB1F621773078407BA07D0
S113214020F0621B730B840BBA0BEE1F88F7E0952B
S1132150089504D06894B11163C1089546D188F0FC
S11321609F5790F0B92F9927B751A0F0D1F0660F7F
S1132170771F881F991F1AF0BA95C9F712C0B1309A
S113218081F04DD1B1E008954AC1672F782F882797
S1132190B85F39F0B93FCCF3869577956795B395D9
S11321A0D9F73EF490958095709561957F4F8F4F48
S11321B09F4F0895E89409C097FB3EF4909580954D
S11321C0709561957F4F8F4F9F4F9923A9F0F92FF9
S11321D096E9BB279395F695879577956795B79577
S11321E0F111F8CFFAF4BB0F11F460FF1BC06F5F5D
S11321F07F4F8F4F9F4F16C0882311F096E911C06F
S1132200772321F09EE8872F762F05C0662371F08F
S113221096E8862F70E060E02AF09A95660F771FA3
S1132220881FDAF7880F9695879597F90895DF93B5
S1132230CF931F930F938B01EC01E8E6F0E03FD0BE
S1132240AAD09801AE018B01EC0160E070E080E857
S11322509FE394DE56D19801AE010F911F91CF9167
S1132260DF91F4C0990F0008550FAA0BE0E8FEEFC8
S113227016161706E807F907C0F012161306E40746
S1132280F50798F0621B730B840B950B39F40A263F
S113229061F0232B242B252B21F408950A2609F41D
S11322A0A140A6958FEF811D811D089597F99F6721
S11322B080E870E060E008959FEF80EC0895DF937C
S11322C0CF931F930F93FF92EF92DF927B018C01C8
S11322D0689405C0DA2EEF01B9D0FE01E894A59107
S11322E02591359145915591AEF3EF0159DEFE01EB
S11322F09701A801DA9479F7DF90EF90FF900F919E
S11323001F91CF91DF9108959F938F937F936F9344
S1132310FF93EF939B01AC018DD0EF91FF91CFDF41
S11323202F913F914F915F9185C000240A94161616
S1132330170618060906089500240A9412161306AF
S1132340140605060895B8CF50D0E8F3E894E0E009
S1132350BB279F57F0F02AED3FE049EC06C0EE0F93
S1132360BB0F661F771F881F28F0B23A62077307F6
S1132370840728F0B25A620B730B840BE3959A9589
S113238072F7803830F49A95BB0F661F771F881F49
S1132390D2F79048F6C0092E0394000C11F4882358
S11323A052F0BB0F40F4BF2B11F460FF04C06F5F09
S11323B07F4F8F4F9F4F0895EF93E0FF06C0A2EA2F
S11323C02AED3FE049EC5FEBEBDDE5DF0F90039492
S11323D001FC9058E0E9F0E097CF57FD9058440F86
S11323E0551F59F05F3F71F04795880F97FB991F70
S11323F061F09F3F79F0879508951216130614062D
S1132400551FF2CF4695F1DF08C0161617061806B9
S1132410991FF1CF86957105610508940895E89494
S1132420BB2766277727CB0197F908951BDF08F4AC
S11324308FEF08950BD0AFCF78DF28F07DDF18F051
S1132440952309F033CF38CF1124EACFC6DFA0F3A8
S1132450959FD1F3950F50E0551F629FF001729F35
S1132460BB27F00DB11D639FAA27F00DB11DAA1F54
S1132470649F6627B00DA11D661F829F2227B00DA1
S1132480A11D621F739FB00DA11D621F839FA00D2C
S1132490611D221F749F3327A00D611D231F849F7C
S11324A0600D211D822F762F6A2F11249F575040D3
S11324B08AF0E1F088234AF0EE0FFF1FBB1F661F6E
S11324C0771F881F91505040A9F79E3F510570F027
S11324D0EDCEA6CF5F3FECF3983EDCF3869577957F
S11324E06795B795F795E7959F5FC1F7FE2B880F22
S11324F0911D9695879597F9089511F40EF4DCCE05
S11325003EC073DFD0F39923D9F3CEF39F57550B15
S113251087FF43D00024A0E640EA900180585695F6
S1132520979528F4805C660F771F881F20F0261784
S11325303707480730F4621B730B840B20293129B9
S11325404A2BA69517940794202531254A2758F736
S1132550660F771F881F20F026173707480730F4C7
S1132560620B730B840B200D311D411DA09581F767
S1132570B901842F9158880F9695879508959F3FA8
S113258031F0915020F4879577956795B795880F2A
S1132590911D9695879597F9089591505040660F2F
S11325A0771F881FD2F70895A3E1B0E0EAEDF2E1C6
S11325B00C9463167C011B016A01FC0117821682CC
S11325C0838181FF66C3BE016F5F7F4F4B01F701BB
S11325D09381F10193FD859193FF81911F018823DC
S11325E009F453C3853239F493FD859193FF8191A6
S11325F01F01853239F4B70190E00E94C7185601D3
S11326006501E5CF10E0512C20E02032A0F48B329C
S113261069F030F4803259F0833269F420612CC0BF
S11326208D3239F0803339F4216026C02260246071
S113263023C0286021C027FD27C030ED380F3A3071
S113264078F426FF06C0FAE01F9F300D1124132FE3
S113265013C06AE0569E300D1124532E20620CC024
S11326608E3221F426FD11C3206406C08C3611F489
S1132670206802C0883641F4F10193FD859193FFEF
S113268081911F018111C1CF9BEB980F933018F4F6
S11326902061805E06C09BE9980F933008F0AAC1C0
S11326A02F7E26FF16E02F73722E853621F4F22F2B
S11326B0F0647F2E08C0863621F4622F6068762E7F
S11326C002C01111115077FE07C01C3348F4442492
S11326D04394410E27E00BC0183030F4212F06C07C
S11326E027E04CE3442E03C027E017E0412C5601B9
S11326F074E0A70EB11CF60160817181828193811F
S1132700042DA4010E94D9176C01098100FF02C0A5
S113271003FF06C071FC07C072FC08C0612C08C02E
S11327203DE2632E05C02BE2622E02C090E2692EC8
S1132730802F8C7099F1662011F084E001C083E051
S1132740851510F0512C0BC0581A73FC08C0B70142
S113275080E290E00E94C7185A94C9F7F3CF66202C
S113276029F0B701862D90E00E94C71803FD03C02D
S113277002EB10E002C00EEA10E0F72DF0717F2E9C
S1132780F8018491882309F476C271108052B7014C
S113279090E00E94C7180F5F1F4FF2CF77FE0FC063
S11327A04C0C04FF04C08A81813309F44A94141444
S11327B074F5F8E0F41578F588E0482E2CC076FC22
S11327C02AC0812F90E08C159D059CF06CEFC616F5
S11327D06FEFD60674F0772D7068772E0AC0E2E0AA
S11327E0F0E0EC0FFD1FE10FF11D8081803319F43F
S11327F011501111F4CF77FE0EC044244394410EBE
S1132800812F90E0C816D9062CF41C1904C0442466
S1132810439401C010E077FE07C01C141D043CF46F
S113282096012F5F3F4F05C025E030E002C021E054
S113283030E0662011F02F5F3F4F112331F0412F1C
S113284050E04F5F5F4F240F351F452D50E0241794
S1132850350714F4521A01C0512C872D897049F49C
S1132860552039F0B70180E290E00E94C7185A94CD
S1132870F7CF662029F0B701862D90E00E94C71893
S113288073FC09C0552039F0B70180E390E00E9441
S1132890C7185A94F7CF77FE5FC09C2D8D2DD7FEB5
S11328A002C090E080E0692E782E40E050E0C6013E
S11328B0841991099D878C87960126193709280D5B
S11328C0391D812F90E0EE27FF27E81BF90BFF87C6
S11328D0EE87FFEF6F167F0669F4B7018EE290E092
S11328E02B8B3A8B488B598B0E94C718598948897E
S11328F03A892B89C614D70454F06C857D856615F6
S113290077052CF4F901E40FF51F818101C080E300
S113291071E0671A71084F5F5F4FEE85FF856E1691
S11329207F066CF0B70190E02B8B3A8B488B598B68
S11329300E94C7182B893A8948895989CACF6C14CF
S11329407D0439F49A81963318F4953311F404FF15
S113295081E3B70190E04BC08A81813309F00F7E97
S1132960B70190E00E94C718111105C074FE18C089
S113297085E490E017C0B7018EE290E00E94C7188A
S113298082E066246394680EF401E80FF11D8081EF
S1132990B70190E00E94C718115041F3862DF1CF82
S11329A085E690E0B7010E94C718D7FC05C0C114A2
S11329B0D10439F404FF05C0D194C194D1088DE247
S11329C001C08BE2B70190E00E94C71880E36AE07F
S11329D0C616D1042CF08F5FFAE0CF1AD108F7CFD6
S11329E0B70190E00E94C718B701C601C0960E94C3
S11329F0C71841C1833631F0833779F0833509F044
S1132A0058C021C0560172E0A70EB11CF6018081A6
S1132A10898301E010E0640114C05601F2E0AF0EB6
S1132A20B11CF601C080D18026FF03C0612F70E085
S1132A3002C06FEF7FEFC6012B8B0E94BC188C0184
S1132A402B892F7715C05601F2E0AF0EB11CF601A9
S1132A50C080D18026FF03C0612F70E002C06FEFF9
S1132A607FEFC6012B8B0E94B1188C012B89206843
S1132A70722E23FD1AC0852D90E008171907A8F4BB
S1132A80B70180E290E00E94C7185A94F4CFF6018F
S1132A9077FC859177FE81916F01B70190E00E94E8
S1132AA0C71851105A94015011090115110579F7ED
S1132AB0E2C0843611F0893651F5560127FF09C06A
S1132AC0F4E0AF0EB11CF6016081718182819381C3
S1132AD00AC0F2E0AF0EB11CF60160817181882753
S1132AE077FD8095982F022F0F7697FF08C0909559
S1132AF08095709561957F4F8F4F9F4F00682AE0B6
S1132B0030E0A4010E946A19C82EC8183EC0022FE2
S1132B10853721F40F7E2AE030E01DC0097F8F360F
S1132B2091F018F4883559F0B0C0803719F088371F
S1132B3011F0ABC0006104FF09C0046007C024FFAA
S1132B4008C0066006C028E030E005C020E130E09F
S1132B5002C020E132E0560107FF09C0F4E0AF0EE5
S1132B60B11CF601608171818281938108C0F2E019
S1132B70AF0EB11CF6016081718180E090E0A40188
S1132B800E946A19C82EC8180F7706FF0BC0202FA1
S1132B902E7FC11650F404FF0AC002FD08C0202F86
S1132BA02E7E05C0DC2C202F03C0DC2C01C0D12ECE
S1132BB024FF0DC0FE01EC0DF11D8081803311F462
S1132BC0297E09C022FF06C0D394D39404C0822F67
S1132BD0867809F0D39423FD13C020FF06C01C2D72
S1132BE0D51418F4150D1D19D52CD51468F4B70196
S1132BF080E290E02B8B0E94C718D3942B89F5CFE9
S1132C00D51410F45D1801C0512C24FF12C0B70173
S1132C1080E390E02B8B0E94C7182B8922FF17C0FA
S1132C2021FF03C088E590E002C088E790E0B70187
S1132C300CC0822F867859F021FD02C080E201C0C9
S1132C408BE227FD8DE2B70190E00E94C718C11600
S1132C5038F4B70180E390E00E94C7181150F7CF11
S1132C60CA94F401EC0DF11D8081B70190E00E943B
S1132C70C718C110F5CF552009F4C2CCB70180E2C2
S1132C8090E00E94C7185A94F6CFF7018681978185
S1132C9002C08FEF9FEF6396E2E10C947F1697FBDF
S1132CA0072E16F4009407D077FD09D00E949A16D7
S1132CB007FC05D03EF4909581959F4F089570953B
S1132CC061957F4F08952F923F924F925F926F923A
S1132CD07F928F929F92AF92BF92CF92DF92EF92A8
S1132CE0FF920F931F93CF93DF93CDB7DEB7CA1B29
S1132CF0DB0B0FB6F894DEBF0FBECDBF09942A8854
S1132D00398848885F846E847D848C849B84AA84FB
S1132D10B984C884DF80EE80FD800C811B81AA8188
S1132D20B981CE0FD11D0FB6F894DEBF0FBECDBF53
S1132D30ED010895AA1BBB1B51E107C0AA1FBB1FCD
S1132D40A617B70710F0A61BB70B881F991F5A9533
S1132D50A9F780959095BC01CD010895CF93DF9399
S1132D608230910510F482E090E0E0915205F091F8
S1132D70530520E030E0A0E0B0E0309739F1408125
S1132D80518148175907B8F04817590771F48281DF
S1132D909381109729F013969C938E9312972CC0CD
S1132DA0909353058093520527C02115310531F0C6
S1132DB04217530718F0A901DB0101C0EF019A0182
S1132DC0BD01DF010280F381E02DD7CF211531054C
S1132DD0F9F0281B390B2430310580F48A819B815A
S1132DE06115710521F0FB019383828304C09093E4
S1132DF0530580935205FE01329644C0FE01E20F52
S1132E00F31F8193919322503109398328833AC067
S1132E102091500530915105232B41F420916200FB
S1132E203091630030935105209350052091600048
S1132E30309161002115310541F42DB73EB7409121
S1132E40640050916500241B350BE0915005F0910E
S1132E505105E217F307A0F42E1B3F0B281739077F
S1132E6078F0AC014E5F5F4F2417350748F04E0FE2
S1132E705F1F50935105409350058193919302C075
S1132E80E0E0F0E0CF01DF91CF910895CF93DF939D
S1132E90009709F487C0FC01329713821282C09113
S1132EA05205D0915305209781F420813181280F58
S1132EB0391F80915005909151058217930779F538
S1132EC0F0935105E09350056DC0DE0120E030E041
S1132ED0AE17BF0750F412964D915C9113979D0164
S1132EE04115510509F1DA01F3CFB383A28340817F
S1132EF05181840F951F8A179B0771F48D919C91C2
S1132F001197840F951F02969183808312968D9159
S1132F109C911397938382832115310529F4F093AF
S1132F205305E09352053EC0D9011396FC93EE93EA
S1132F3012974D915D91A40FB51FEA17FB0779F421
S1132F4080819181840F951F0296D90111969C93DB
S1132F508E938281938113969C938E931297E0E0D3
S1132F60F0E08A819B81009719F0FE01EC01F9CF12
S1132F70CE01029628813981820F931F209150053A
S1132F80309151052817390769F4309729F41092C4
S1132F9053051092520502C013821282D093510538
S1132FA0C0935005DF91CF910895662777270C943D
S1132FB0C819283008F027E03327DA01990F311DAA
S1132FC087FD916000966105710539F432602E5FCA
S1132FD03D9330E32A95E1F708959F3F30F0803820
S1132FE07105610509F03C5F3C5F3D93913008F049
S1132FF08068911DDF93CF931F930F93FF92EF92FD
S1133000192F987F9695E92F96959695E90FFF27A6
S1133010E05FFE4F99273327EE24FF24A701E70141
S113302005900894079428F4360FE71EF81E491FEC
S1133030511D660F771F881F991F0694A1F70590ED
S1133040079428F4E70EF81E491F561FC11D770F79
S1133050881F991F661F0694A1F70590079428F40A
S1133060F80E491F561FC71FD11D880F991F661FD1
S1133070771F0694A1F70590079420F4490F561F73
S1133080C71FD81F990F661F771F881F0694A9F7BB
S113309084911095177041F0D695C795579547952B
S11330A0F794E7941A95C1F7E6EBF0E0689415906D
S11330B0159135916591959105907FE27395E1188D
S11330C0F10A430B560BC90BD009C0F7E10CF11EF2
S11330D0431F561FC91FD01D7EF4703311F48A9507
S11330E0E6CFE894015030F0080F0AF400270217E5
S11330F008F4202F2395022F7A3328F079E37D9367
S11331002A95E9F710C07D932A9589F60694979538
S11331106795379517951794E118F10A430B560BE9
S1133120C90BD00998F023957E9173957A3308F0F2
S113313070E37C932013B8F77E9170617D9330F037
S1133140839571E37D9370E32A95E1F71124EF9061
S1133150FF900F911F91CF91DF91992787FD909553
S11331600895FC010590615070400110D8F78095D6
S113317090958E0F9F1F0895FC016150704001903F
S11331800110D8F7809590958E0F9F1F08950F9387
S11331901F93CF93DF93182F092FEB018B8181FDB0
S11331A003C08FEF9FEF20C082FF10C04E815F816C
S11331B02C813D81421753077CF4E881F9819F01FA
S11331C02F5F3F4F39832883108306C0E885F98534
S11331D0812F0995892B29F72E813F812F5F3F4F3E
S11331E03F832E83812F902FDF91CF911F910F91D9
S11331F00895A0E0B0E0EFEFF8E10C947316FE013F
S1133200359661917191AF01809156059091570562
S11332100E94D412E2E00C948F160F931F93CF9365
S1133220DF93E0915605F0915705238121FF1BC0E0
S1133230EC0100E010E0899160915605709157050A
S1133240DB011896ED91FC911997882331F00995CB
S1133250892B89F30FEF1FEFEECF8AE00995892BB5
S113326011F4C80102C08FEF9FEFDF91CF911F913E
S11332700F910895AEE0B0E0E0E4F9E10C9471162A
S11332800D891E898F89988D26E02C831A830983E2
S113329097FF02C080E090E801979E838D83AE0182
S11332A0455E5F4F698D7A8DCE0101960E94D412DE
S11332B04D815E8157FD0AC02F813885421753071F
S11332C00CF49A01F801E20FF31F10822E96E4E049
S11332D00C948D16FA01AA27283051F1203181F17E
S11332E0E8946F936E7F6E5F7F4F8F4F9F4FAF4F0A
S11332F0B1E03ED0B4E03CD0670F781F891F9A1F1D
S1133300A11D680F791F8A1F911DA11D6A0F711DD0
S1133310811D911DA11D20D009F468943F912AE0DC
S1133320269F11243019305D3193DEF6CF010895C4
S1133330462F4770405D4193B3E00FD0C9F7F6CFF5
S1133340462F4F70405D4A3318F0495D31FD4052BD
S1133350419302D0A9F7EACFB4E0A6959795879553
S113336077956795BA95C9F7009761057105089532
S11333709B01AC010A2E06945795479537952795DE
S1133380BA95C9F7620F731F841F951FA01D089576
S1133390A0E0B0E0EEECF9E10C9469168B01611544
S11333A0710521F0DB018C9311969C93EC015E0175
S11333B0BFEFAB1ABB0A7501C8808C2D90E00E9448
S11333C02B1B892B11F0E501F2CFEDE2CE1208C0E0
S11333D07E01F2E0EF0EF11CC980DD24D39409C014
S11333E02BE2C21205C07E0142E0E40EF11CC9804A
S11333F0D12CE701219743E050E068EB71E0CE0166
S11334000E94331B892BC1F4239645E050E063EB03
S113341071E0CE010E94331B892B09F42596011516
S1133420110519F0D801CD93DC93D11006C160E0E9
S113343070E080E89FE70AC143E050E060EB71E090
S1133440CE010E94331B892B59F40115110509F48F
S1133450F9C0B2E0EB0EF11CF801F182E082F2C097
S1133460F70160E070E0CB01C0E0D0E07F01A0EDA7
S1133470AA2EAC0C29E02A1530F14D2D4260B42E51
S11334802D2D2870D2FE04C0211125C0219623C001
S113349021112197A5E0B0E09B01AC010E944E1BD5
S11334A0660F771F881F991F6A0D711D811D911D5D
S11334B06839A9E97A078A07A9E19A0760F0BD2D5E
S11334C0B660BB2E08C02EEFA2120AC0D3FC50C0B7
S11334D04D2D4860B42E3196D701CC90DB2CC6CF4D
S11334E02C2D2F7D253409F043C0A081AD3241F449
S11334F0BD2DB061DB2E7F0122E0E20EF11C0CC079
S11335007F01AB3231F04FEFE41AF40A21E030E0EE
S113351006C0A2E0EA0EF11CA18122E030E0A05333
S1133520AA3018F0E21AF30A23C0F70120E030E0D1
S11335302038BCE03B075CF4A901440F551F440F3D
S1133540551F240F351F220F331F2A0F311DAF01C2
S11335504F5F5F4F7A01A081A053AA3010F4FA01A3
S1133560E7CFD4FE03C0319521953109C20FD31F93
S1133570D1FE09C00115110531F0E1E0EE1AF108A0
S1133580D801ED92FC920E94DA102D2D2370233085
S113359019F04B015C0106C04B015C01B7FAB09411
S11335A0B7F8B09420E030E0A901C501B4010E944D
S11335B03A10882309F43EC0D7FF06C0D195C195BF
S11335C0D1090FEC11E002C007EE11E06801B8E187
S11335D0CB1AD10890E2E92EF12CCE15DF0574F058
S11335E0F8012591359145915491C501B4010E948A
S11335F01A124B015C01CE19DF09EFCF04501109F7
S1133600F594E7940C151D0541F78A2D880F8B2D31
S1133610881F8F3F49F020E030E0A901C501B401C3
S11336200E943A10811106C082E290E090935B05FB
S113363080935A05C501B40109C060E070E080E8D8
S11336409FEF04C060E070E080EC9FE7CDB7DEB789
S1133650ECE00C94851691111EC0803219F089504B
S11336608550D0F70895FB01DC014150504088F0AB
S11336708D9181341CF08B350CF4805E659161343E
S11336801CF06B350CF4605E861B611171F3990BB1
S11336900895881BFCCF9927882708950E94591BF9
S11336A0A59F900DB49F900DA49F800D911D112492
S11336B00895A29FB001B39FC001A39F700D811D07
S11336C01124911DB29F700D811D1124911D089527
S10736D0F894FFCF98
S11336D400005C05200003535441525400000000D0
S11336E400000000000000000000000000000000D2
S11336F400000000000000000000000000000000C2
S113370400000000000000000000000000000000B1
S113371400000000000000000000000000000000A1
S11337240000000000000000000000000000000091
S11337340000000000000000000000000000000081
S11337440000000000000000000000000000000071
S11337540000000000000000000000000000000061
S113376400000000000000000000000000E5CFBDE0
S113377441D1C6B442EACFBD41F3C6B442F7CFBD8A
S11337844124C7B4428ACFBD4133C7B44248CFBDF4
S11337944149C7B4426C61743A20256C66206C6F4D
S11337A46E3A20256C660A006C61743A20257320F5
S11337B46C6F6E3A2025730A00636F6D706C6574C8
S11337C4656420696E697469616C697A696E6720DD
S11337D47661726961626C657300627574746F6E8C
S11337E420707573686564005374617274696E67DC
S11337F42E2E2E0053746F7070696E672E2E2E0059
S113380457656C636F6D6520546F21002D475053C9
S1133814204E4156494741544F522D0062757474E9
S11338246F6E2063757272656E742073746174654F
S11338342025640A000A0A2D2D2D2D2D2D2D2D2D24
S11338442D2D2D2D2D2D2D2D2D2D2D2D2D2D4D416C
S1133854494E2D2D2D2D2D2D2D2D2D2D2D2D2D2D53
S11338642D2D2D2D2D2D2D2D2D0A0073686F7720D0
S11338746C6174206C6F6E206F6E204C4344004363
S1133884757272656E74204C6F636174696F6E0037
S11338940A68616E646C696E672064697265637436
S11338A4696F6E000A646972656374696F6E3A20A5
S11338B425640A002A2A2A2A5455524E204C454685
S11338C45400636F76657265642025646D002A2A4A
S11338D42A2A5455524E205249474854002A2A2A27
S11338E42A474F20535452414947485400476F20B4
S11338F45374726169676874002D2D2D2D2D2D2D3F
S11339042D4552524F522D2D2D2D2D2D2D006861F4
S11339146E646C656420646972656374696F6E0AAD
S1133924000A0A7374617274696E67206E61766941
S1133934676174696F6E00256C66000A6375727240
S11339443A202573202573200A00707265763A2084
S11339542573202573200A00776179706F696E746A
S1133964206964783A202564200A00776179706FAD
S1133974696E74203A2025732025730A00646973E0
S113398474616E636520746F206E6578742077703B
S11339943A202564206D0A0074656D70646973743B
S11339A43A202564206D0A004E4541525F44495330
S11339B45400494E49545F44495354004D6F726551
S11339C4207468616E203235206D657465720064FC
S11339D4697374616E636520636F766572656420D0
S11339E474696C6C206E6F77203A202564206D0A0C
S11339F4000A2A2A2A52554E20434F4D504C45540E
S1133A04452A2A2A0A0052554E20434F4D504C450C
S1133A14544500546F74616C2025646D00746F7494
S1133A24616C2064697374616E63652025640A00A3
S1133A346E65787420776179706F696E74202020C4
S1133A44203A2025732025730A000A656E64696E82
S1133A5467206E617669676174696F6E000A0A0A89
S1133A64676574204461746100696E76616C69648D
S1133A742064617461002D2D2D2D2D2D2D2D2D7679
S1133A84616C6964206C61743A202573206C6F6ED8
S1133A943A2025732D2D2D2D2D2D2D2D0A007368DF
S1133AA46F772064697374616E6365206F6E204C54
S1133AB44344200044697374202564206D007368B2
S1133AC46F77696E672063757272656E74206C6FAC
S1133AD4636174696F6E006375724C61742025664A
S1133AE4006375724C6F6E2025660073686F776986
S1133AF46E6720637572726C6F6320262064697329
S1133B0474616E6365206C65667400636F766572B8
S1133B146564202564206D00537065656420252E3A
S1133B243266206D707300746F74616C44697374CD
S1133B3420256420656C61707365642074696D6507
S1133B4420256420730A0074696D657230006C6307
S1133B54642073746174653A2025640A0073686F81
S1133B6477696E6720446972656374696F6E007265
S1133B746967687400737472616967687400436F79
S10F3B847665726564202564206D0000E5
S9030000FC
